:020000040800F2
:10000000E0AB0010C1010008637D00089575000891
:10001000617D0008391000086B9E00080000000098
:10002000000000000000000000000000E57D000866
:10003000D942000800000000657D0008717E0008BC
:10004000DB010008DB010008DB010008DB01000820
:10005000DB010008DB0100086D4300087B4300085A
:10006000DB010008DB010008DB010008DB01000800
:10007000DB010008DB010008DB010008DB010008F0
:10008000DB010008DB010008DB010008DB010008E0
:10009000DB010008DB010008DB010008DB010008D0
:1000A000DB010008DB010008DB010008DB010008C0
:1000B000DB010008DD7E0008DB010008DB01000831
:1000C000DB010008DB010008DB010008DB010008A0
:1000D000DB010008C1860008DB010008DB01000825
:1000E00073430008DB010008DB010008DB010008A6
:1000F000DB010008DB010008DB010008DB01000870
:10010000DB010008DB010008DB010008DB0100085F
:1001100045820008DB010008DB010008DB01000864
:10012000DB0100089D410008DB010008DB0100083D
:10013000DB010008DB010008DB010008DB0100082F
:10014000DB010008DB010008DB010008DB0100081F
:10015000DB010008DB010008DB010008DB0100080F
:10016000DB010008DB010008DB010008DB010008FF
:10017000DB010008DB0100087D41000800000000F1
:10018000DB010008DB010008DB010008DB010008DF
:10019000DB010008DB010008DB010008DB010008CF
:1001A0000000000000000000DB010008DFF80CD0B8
:1001B00000F01AFD00480047F5AF0008E0AB001062
:1001C0000648804706480047FEE7FEE7FEE7FEE7F1
:1001D000FEE7FEE7FEE7FEE7FEE7FEE7857E0008B6
:1001E000AD0100089FED1A1AF5EE000A40EE010A73
:1001F000BDEEE00AF5EEC00A10EE100AF1EE10FABC
:1002000038BF401E00EE100A1349F7EE001AB8EE90
:10021000C00A30EEC00ADFED0F0A20EE200AFCEE25
:10022000C00A10EE900AC0F3080000EE900A01EB3D
:100230008000F8EE600A90ED011A70EE600A90ED11
:10024000000A71EEE01A21EE800A00EE810A704782
:1002500083F9223E0000004418B8000840EA010378
:100260009B0703D009E008C9121F08C0042AFAD26C
:1002700003E011F8013B00F8013B521EF9D2704730
:10028000421C10F8011B0029FBD1801A70470000A6
:1002900070B50F4D00B92868002412E00A4602E04C
:1002A0009E4203D0521C1378002BF9D1DAB22243BC
:1002B00005D02BB124B1002100F8011B04E0044655
:1002C000401C0678002EE9D12860204670BD000051
:1002D000080100202DE9F04791460F46804604466C
:1002E000002614F8015B2DB100F0C8FA0068405DEB
:1002F000C007F6D12B2D02D02D2D18D0641E4A46F2
:100300003946204600F0C7FA27B13968A14201D129
:10031000C7F8008071054FF002040BD54042002859
:1003200003DD09F067FE0460A007BDE8F08746F42E
:100330008066E4E70028F8DA09F05CFE04606FF0FC
:100340000040F2E72DE9F05F93460F4680460446F1
:10035000002609F04FFED0F80090824614F8015BA9
:100360002DB100F08BFA0068405DC007F6D12B2D4F
:1003700002D02D2D1AD0641E0021CAF800105A4652
:100380003946204600F087FA014627B13868A04276
:1003900001D1C7F80080DAF80000022809D0CAF8B5
:1003A0000090700505D54842BDE8F09F46F4806690
:1003B000E2E70846F8E72DE9FE4F804681EA0300B0
:1003C000C00F0C46009021F0004123F00045B8EB2F
:1003D0000200A94105D24046214690461C460B46E4
:1003E000024623F00040104347D0270DC7F30A0010
:1003F000C3F30A510290401A019040286BDAC3F30C
:10040000130040F4801B0098924620B10023D2EBE9
:10041000030A63EB0B0B01985946C0F140025046AA
:1004200000F0FBF906460D4650465946019A00F089
:1004300013FA10EB08006141002487EA115284EAA4
:10044000E7731A4340D0009A62B3019A012A4FEA37
:10045000075215DC001B61EB02014FF0004202EA7B
:100460000752CDE90042001C41F5801132462B466F
:1004700000F0F4FA03B0BDE8F08F40462146F9E7FA
:10048000001B61EB0201001C41F5801300185B4169
:100490002018A2F5001747EB030140EAD570B61902
:1004A0006D4111E06D084FEA360645EAC0754FEA26
:1004B0000752001B61EB0201001C41F58011490845
:1004C0004FEA30000019514132462B4603B0BDE8D7
:1004D000F04F00F0B4BA0098012240000023D0EBA6
:1004E000020263EBE073009821464FEAE074B8EB38
:1004F000000061EB0401E9E783F000435BE781F072
:10050000004158E72DE9FE4F81EA030404F000445E
:1005100021F0004100944FF0000B23F0004350EA1B
:1005200001045ED052EA03045BD0C3F30A54C1F362
:100530000A552C44A4F2F3340194A0FB0254C1F3F5
:10054000130141F48011C3F3130343F4801301FB3F
:10055000024400FB034E840A970A44EA815447EAA6
:100560008357A4FB076802958D0A05FB07854FEAB0
:10057000932C04FB0C542705029D4FEA065847EACA
:100580001637B5EB08056EEB070C870E920E47EA9F
:10059000811742EA8312A7FB0201B6EB0B0164EB61
:1005A00000042B0D43EA0C335E1844EB1C50DA4672
:1005B0005146E7FB0201C5F313044FEA0B3343EA4C
:1005C00014534FEA0432019C43EA0603A4F10C04DD
:1005D0000294009CCDE900B400F040FA03B0BDE8FD
:1005E000F08F00200146F9E72DE9F04D81EA030480
:1005F00004F0004B21F0004514464FF0000A23F0B0
:10060000004150EA050220D054EA01021DD0C5F392
:100610000A570246C5F31303C1F31300C1F30A5688
:1006200040F4801543F48013A7EB0608101BD64650
:1006300008F2FD3873EB050002D308F1010801E070
:1006400092185B41B8F1000F03DA00200146BDE8C3
:10065000F08D00204FF48011064684460EE0171BF3
:1006600073EB050705D3121B63EB050306434CEA46
:10067000010C49084FEA300092185B4150EA01072B
:10068000EDD152EA030012D082EA040083EA0501A8
:10069000084305D0101BAB4106D20122002306E01F
:1006A00000224FF0004302E06FF0010253101AEBFA
:1006B00006004CEB085110EB0A0041EB0B01BDE8C2
:1006C000F04D00F0BCB930B4044696230800214632
:1006D00004D0B62330BC002200F083B920460021AC
:1006E000F8E70EB540F2334102910021CDE9001147
:1006F0000A460B4600F0B2F903B000BDC1F30A523E
:1007000010B5C1F3130140F2FF3341F480119A4256
:1007100001DA002010BD40F233439A42A2F2334284
:1007200003DC524200F088F810BD904010BD00F08C
:10073000004230F000400AD0C10D01F56071C0F3F5
:10074000160042EA0151C2084007114370470020D9
:100750000146704701F0004330B421F0004150EAF7
:10076000010206D00A0DA2F56072C1F31301002A3E
:1007700002DC30BC00207047440F44EAC104C100D1
:10078000E01830BC00EBC25000F022B930B50B4687
:10079000014600202022012409E021FA02F59D42B1
:1007A00005D303FA02F5491B04FA02F52844151E85
:1007B000A2F10102F1DC30BD2DE9F05F0546002019
:1007C00092469B4688460646814640241BE02846C2
:1007D00041464746224600F02FF853465A46C01A73
:1007E000914110D311461846224600F016F82D1AF2
:1007F00067EB01084F4622460120002100F00DF86A
:1008000017EB00094E41201EA4F10104DFDC48462D
:1008100031462A464346BDE8F09F202A04DB203AB1
:1008200000FA02F1002070479140C2F1200320FA43
:1008300003F3194390407047202A04DB203A21FA41
:1008400002F00021704721FA02F3D040C2F12002E9
:100850009140084319467047202A06DBCB17203AFF
:1008600041FA02F043EAE07306E041FA02F3D040B5
:10087000C2F1200291400843194670470048704772
:10088000FCC0000810B50446FFF7F8FF0068005DE3
:1008900000F0010010BD2DE9F05F824600780027CE
:1008A00015468B460AF10104B946302801D09DB1A6
:1008B00013E014F8010B0127782803D0582801D041
:1008C00045B10AE00DB1102D07D10027102514F80D
:1008D000010B02E0082500E00A250026B0460EE0E4
:1008E00005FB080005FB06F1012701EB10461FFA86
:1008F00080F8B6F5803F00D3B94614F8010B2946BD
:1009000000F084F90028EBDABBF1000F05D00FB13D
:10091000641E00E05446CBF80040B9F1000F06D049
:1009200009F068FB02210160C81EBDE8F09F48EA9B
:100930000640FAE70FB4002300B589B00CA9009176
:100940000B996FF00042CB601E4B06931E4B079332
:100950000423CDE901321D4A089202466B4600206D
:1009600000F0E2F909B05DF814FB70B586B00646F8
:100970004FF0FF300091CDE90101002015460C46F3
:1009800004903246694604A8FFF7D4FF0246049853
:10099000211825B108B1084600E0204628600498D7
:1009A00000280DD0002A02DD0098884208D0081BDC
:1009B0000094CDE901043246694604A8FFF7BAFF66
:1009C00006B070BD610F00087F0F000885080008A1
:1009D0000029A8BF7047401C490008BF20F0010053
:1009E000704710B4B0FA80FC00FA0CF050EA010431
:1009F00004BF10BC704749B1CCF1200421FA04F4C3
:100A000011FA0CF118BF012121430843A3EB0C019B
:100A1000CB1D4FEA00614FEA102042BF002010BCFE
:100A2000704700EBC35010440029A4BF10BC7047AE
:100A3000401C490008BF20F0010010BC704710B5F1
:100A4000141E73F1000408DA401C41F100019218F1
:100A50005B411A4301D120F0010010BD2DE9F04D9A
:100A600092469B4611B1B1FA81F202E0B0FA80F2EF
:100A700020329046FFF7D1FE04460F4640EA0A00B6
:100A800041EA0B0153465A46084313D0114653EA34
:100A9000010019D0C8F140025046FFF7CDFE0546CF
:100AA0000E46504659464246FFF7B7FE084305D06A
:100AB000012004E020463946BDE8F08D00200543C2
:100AC00046EAE0762C4337430A986305E40AA0EB34
:100AD00008000022FD0A44EA47540A3002D50020EB
:100AE0000146E9E7010510196941DDE908450019EA
:100AF0006941BDE8F04DA2E70EB5C10F80EAE07094
:100B00000844CA07002140F233438DE80E000A462C
:100B10000B46FFF7A3FF03B000BD70B5C1F30A5247
:100B200001F000450024C1F3130140F2FF3341F40A
:100B300080119A4201DA002070BD40F233439A429C
:100B4000A2F2334203DC5242FFF776FE00E090400F
:100B50002C43F1D0404270BDC1F30A52C1F31301DE
:100B600040F2FF3341F480119A4202DA002001463C
:100B7000704740F233439A42A2F2334202DC5242BF
:100B8000FFF75ABEFFF749BE30B5041E71F10004ED
:100B900004DB4FF00044404264EB0101141E73F18A
:100BA000000405DB1C464FF00043524263EB040394
:100BB0008B4208BF824230BD30B5041E71F1000483
:100BC00004DB4FF00044404264EB0101141E73F15A
:100BD000000405DB1C464FF00043524263EB040364
:100BE000994208BF904230BD064C074D06E0E068D0
:100BF00040F0010394E8070098471034AC42F6D364
:100C0000FFF7D8FAF4C6000824C700083A2800D233
:100C1000303820F02002412A01D3A2F13700884267
:100C200001D34FF0FF3070472DE9FF4F087881B0B6
:100C30009946FF2805D0491C2D2804D00024002304
:100C400008E000230BE00124F9E703EB830300EB4A
:100C50004303491C0878FF28F7D104B15B42002008
:100C60000090147801462D2C01D02B2C04D1521C5D
:100C70002D2C12D00024009400251678FF2E0ED0C3
:100C80000A24A0FB04C801FB0481002700FB071114
:100C9000521C16EB0C006941EFE70124EBE7994485
:100CA00050EA01020ED00024AA4D2646DFF8A882A1
:100CB00000F076F982468B46B9F1000009DAC9F1F5
:100CC00000071BE001980021C0E9001105B0BDE854
:100CD000F08F074612E0F80707D022462B46304631
:100CE0004146FFF70FFC0646884622462B46104633
:100CF0001946FFF707FC04460D467F10002FEAD186
:100D0000B9F1000F324643465046594602DAFFF722
:100D10006BFC01E0FFF7F6FB009A0AB181F000419D
:100D2000019AC2E90001D1E72DE9FF4F1F468DB0BE
:100D3000D7E901464FF0FF382E2045464FF0000915
:100D40000B90B9696D1C0E988847396A82468847AE
:100D50000028F6D1BAF1FF3F0AD024F4D064002E67
:100D600011DDBAF12B0F08D0BAF12D0F0BD102E033
:100D7000404611B0ABE744F48064B9696D1C0E982D
:100D800088478246761E6946600501D52D2000E021
:100D90002B208DF8000001F1010B0DF1200809E076
:100DA000B9696D1C0E98884782460F9844F4007408
:100DB000761E0560002E02DDBAF1300FF0D00B99DF
:100DC0008A453ED144F0800406E00F99681CA9F1E1
:100DD000010944F400740860B9696D1C761E0E9810
:100DE000884782463028F0D02BE00B998A4505D100
:100DF000200603D444F08004761E18E0504609F023
:100E0000D3FC08B30DF11301761E44F400748B4536
:100E100008D2AAF130000BF8010B200607D5A9F182
:100E2000010003E0200602D409F101008146A0057B
:100E300002D50F99681C0860B9696D1C0E98884727
:100E40008246002ED1DC53E0002E51DDBAF1650F51
:100E500002D0BAF1450F4BD1A00549D5B9696D1C37
:100E600024F44074761E0E9888478246002E0CDDCE
:100E70002B2804D0BAF12D0F07D144F48074B9693E
:100E80006D1C0E9888478246761EE00501D52D21FF
:100E900000E02B2108F8011BCDF82C8021E00DF19A
:100EA0002901761E44F4007488450CD2AAF1300062
:100EB00010F0FF0088F8000002D10B99884509D98D
:100EC00008F1010806E0E00501D5244801E042F2FE
:100ED0000F708146B9696D1C0E98884782460F983D
:100EE0000560002E04DD504609F05EFC0028D6D1D6
:100EF000F9690E988847FF208BF8000088F80000F9
:100F00000020069007904B466A4608A906A8FFF7FE
:100F10008BFEA00502D46FF001002AE714F0240F25
:100F20000AD0E00714D1DDE906123868031D3B60E2
:100F30000068C0E900120BE0DDE90601FFF70AFCDA
:100F40000146E00704D13868021D3A60006801607C
:100F500028460EE7000024400000F03FF1D8FFFFD4
:100F6000426842B1016811F8013B23B1521EC0E949
:100F70000012184670470121C160881E7047426800
:100F80005AB1C368016843B983688B4205D0491ED2
:100F9000521CC0E90012002070474FF0FF3070472C
:100FA0000EB540F2334202920022CDE900221346F0
:100FB000FFF754FD03B000BD0248406890F970008F
:100FC00005F060BA700000200248406890F9700097
:100FD00005F064BA70000020F0B583B007460E46F5
:100FE00014461D46002000900190029001236A469D
:100FF0003146384606F0B7FE042807D19DF80100B7
:1010000035B1012D08D0022D0AD0012003B0F0BD6A
:1010100020408DF8010006E020438DF8010002E039
:1010200060408DF801008DF8006002226946384664
:1010300008F074FF03B0F0BDFEE7000038B50546C8
:101040000C46002017490A6842F480020A600968C9
:1010500001F480010091144921604FF0007161603A
:10106000A060E060C9132161890061618900A1610C
:101070008911E16149022162042161620321A162B7
:10108000E0622063204604F0EBFF08B103F078F93A
:10109000AC63A563BDE8384000220221392005F089
:1010A00035BA000030380240286402402DE9F04192
:1010B00086B0732001900224029401250395032732
:1010C00004970D26059601A9124805F087F85020CF
:1010D0000190029403950497059601A90E4805F026
:1010E0007DF84FF0C008CDF8048002940395049772
:1010F000059601A9094805F071F8CDF8048002941D
:1011000003950497059601A9054805F067F806B010
:10111000BDE8F081001002400000024000080240DB
:101120000004024038B5CA688260896891638468A7
:1011300000251648016841F001010160006800F0D7
:1011400001000090FFF7B2FF2046A16BFFF776FF8A
:101150000F48206065602020A0608020E06025614D
:101160006561A5612562204603F0D0FF08B103F058
:1011700007F92068C16821F01701C160BDE8384057
:10118000012202214E2005F0C1B90000343802408E
:10119000000005507047000000B587B002464220AD
:1011A0008DF816000B48009001208DF817000E20D6
:1011B000ADF81400084801900823ADF808300390FA
:1011C0000420ADF8100048685060694602F056FBF4
:1011D00007B000BDA80200200010024010B4022198
:1011E00081701A49D1F808C0CC684B680A68C0F809
:1011F0000CC0046183604260D1F808C0CC684B68C1
:101200000A68C0F81CC0046283614261D1F808C05A
:101210004B680A68C968C0F82CC0836242620163E7
:1012200043F698218182C182B2EE000A80ED060A5F
:101230009FED070A80ED070AB2EE040A80ED0A0A64
:101240009FED040A80ED0B0A10BC70475CB60008E5
:10125000F90FC93F508D274010B51C49082809686F
:1012600004D0042805D040B1002010BD0868041D3A
:1012700006E0086800F1140402E0086800F12404A4
:101280001348016808684968FFF71DFA00EE100A64
:1012900094ED011AC0EE010A94ED020A30EE800AC4
:1012A000FEF7A0FF608800EE900A208801EE100A89
:1012B000F8EE600AB8EE411A40EE010ABCEEE00A10
:1012C00010EE100A80B2A08110BD00003400002092
:1012D0007800002010B584B01A4C01A92068C068BD
:1012E00005F0D0FE019A100CADF8080047F6FE712B
:1012F0001140ADF80A101206120CADF80C200023B4
:10130000884207D2904202D2ADF8083009E0ADF829
:101310000C3006E0914202D9ADF80C3001E0ADF896
:101320000A302368BDF80800196808821A68BDF8F9
:101330000A1011841B68BDF80C201A8600F0D8FC36
:1013400004B010BD340000202DE9F04F89B0A1A1F8
:1013500009680891A0A109680791C16801F52043B7
:1013600093F816270692027D002A5AD000220275B1
:1013700093F810A741F6D83901F52443D3EDDE3AAE
:10138000D3EDD70A93EDD81A4AF27C730B44059338
:101390004AF280730B4404934AF2A4730B44039300
:1013A0004AF2A8730B4402934AF2BC7C0CEB820312
:1013B0000B44019343F2B077002A35D04FF000037D
:1013C0000CEB83030B4400938068844B0068A3FB01
:1013D00000C34FEA5303A3EB8303184408AB40F266
:1013E0007B3C1B5C13FB0CFC7D4B03EB0C1C0CF1DE
:1013F00001040DF11C0C1CF8000040F27B3C10FBBA
:101400000CF003EB001000F10105604602FB00F058
:10141000744A02EBC00201EBC00308D14FF0010C8B
:1014200007E04FF00102A2E74FF00103C8E74FF0D9
:10143000000C40F27B360CFB06FC01EBCC0607EB04
:10144000C00001EB000C02D14FF0010001E04FF0B1
:10145000000040F27B3800FB08F007EBC00001EB16
:10146000000746F6607001EB000848F6383001EBE3
:10147000000B9FED5D0A4FF00001B7EE004A74EEDD
:10148000601A34EE412A2088B5F800E0A0EB0E0087
:101490004FEA60207F2800DD7F2010F17F0F01DA06
:1014A0006FF07E0040B21070002801DB864601E03C
:1014B000C0F1000E02EE90EAF8EEE22A32EE800A67
:1014C000DDF818E0704505DB1078187000208CF806
:1014D000000008E00020187092F90000002800DAEF
:1014E00040428CF80000307802EE900A1878F8EE4E
:1014F000622A03EE100A61EEA22AB8EE433A40EEE9
:10150000832AFCEEE22A12EE900A88F8000038786E
:1015100002EE900A9CF80000F8EE622A03EE100A30
:1015200062EE222AB8EE433A41EE032AFCEEE22AAA
:1015300012EE900A8BF80000521CA41CAD1C5B1C20
:101540000CF1010C761C7F1C08F101080BF1010B5A
:10155000481C81B2494596D300EE909A0198B8EEA6
:10156000601AC0EE010AC0ED000A009834EE630A6A
:1015700090ED001A20EE010A03EEA00A00EE90AAF8
:101580000398B8EE601AC0EE010AC0ED000A059893
:1015900090ED001AB4EEE01AF1EE10FA02DD0398B5
:1015A00080ED001A00EE90AA0298B8EE601AC0EE24
:1015B000010AC0ED000A049890ED000AB4EEE00ABA
:1015C000F1EE10FA02DD029880ED000A09B0002069
:1015D000BDE8F08F0200010001020000ABAAAAAA38
:1015E0007806002088AD0020000000002DE9F047BB
:1015F00004460D46002C13D06868A0B1A86890B1CD
:10160000E86880B1286870B1207901280ED04FF0C9
:10161000010884F8048060793D4F002648B115E048
:101620000120BDE8F0870120BDE8F0870220BDE879
:10163000F0872671286820606968A160A968E16068
:10164000E9682161786020685830B8604FF002097D
:1016500084F8059001F0B8FB2E484FF47A710068C9
:10166000B0FBF1F0401EB0F1807F01D3012009E012
:101670004FF0E0214861284AF02010708E61072069
:101680000861002000B1FEE704F014FF2168234840
:1016900048602168A1F808802168C8602168A1F825
:1016A00010902168486120684FF00408A0F8188065
:1016B00021681B48C8612168801408842168194882
:1016C000486221684FF4005008852168287C81F821
:1016D0007000216841F28830C86600F091FCA06873
:1016E00001F04CFCE06801F091FC00F047F800F0DC
:1016F0001BF87868143000F07FF878680021143007
:1017000000F0A8F884F8058026710420BDE8F08771
:10171000700000200401002023ED00E000000240E2
:1017200000080240000C024010B586B00120019074
:1017300010490291039004900F4C01A9204604F037
:101740004DFD0221019101A9204604F047FD002230
:101750000721062004F0DAFE07210022084604F0E3
:10176000D5FE062004F09AFE072004F097FE06B08E
:1017700010BD0000000031100000024000B587B02D
:101780001948016841F001010160016801F001019F
:101790000191016841F004010160016801F0040158
:1017A0000191016841F008010160006800F0080043
:1017B000019004200290012003900490059002A95A
:1017C0000A4804F00BFD4FF48050029002A908482B
:1017D00004F004FD4FF40050029002A9054804F003
:1017E000FDFC07B000BD00003038024000000240A0
:1017F00000080240000C02408188006804F015BE19
:10180000002804D0006801210170042070470120E5
:1018100070478188006804F001BE000010B586B0F2
:1018200004460B4802903C3003903C300490A0F5F5
:10183000307001901D208DF8140001A9A06AFFF7F7
:10184000D5FEA16A06200968887006B0042010BD84
:10185000580300200A468188006804F0EABD0000B1
:1018600010B50446002C15D0207B012814D001208F
:10187000207313460A460021A06803F09DFCA1686E
:101880000648896BC863A168896B4864002020738F
:10189000042010BD012010BD022010BD391D00081C
:1018A0002DE9F05F04460F46002C0DD0386870B16A
:1018B000207B01280ED04FF0010B84F80CB0607B28
:1018C0004FF0000A48B10CE00120BDE8F09F012074
:1018D000BDE8F09F0220BDE8F09F84F80CA03868B6
:1018E00020600220607330A008F05CFB394620467F
:1018F000FFF752FC00224FF48001104605F092F9E8
:10190000052009F0F1FAFFF745FC204600F0EAF85F
:10191000052009F0E9FA204600F0ACF873280AD057
:10192000014626A008F03EFB84F80DA084F80CA028
:101930000120BDE8F09F01462DA008F033FB38A040
:1019400008F030FB00253F4E16F8158006EB4500E9
:1019500090F8019041464A46606802F0C5F84A4650
:10196000414639A008F01EFB142009F0BDFA681C9E
:10197000C5B2102DE8D339462046FFF7D3FB2068C7
:10198000C0F804B02068C0F808B00420607334A028
:1019900008F008FB0121204601F0E4FE84F80CA0C9
:1019A0000420BDE8F09F00007B7D43616D6572619E
:1019B00020696E69742E2E2E0D0A00007B7D476F04
:1019C000742063616D657261204944203078253050
:1019D00032782E2043616D657261204F563736375D
:1019E00030206E6F7420666F756E642E0D0A0000D5
:1019F0007B7D476F742063616D657261204944206F
:101A00003078253032782E2043616D657261204F29
:101A1000563736373020666F756E642E0D0A00001B
:101A20007B7D7772697474696E672063616D65721E
:101A30006120696E69742072656769737465727379
:101A40000D0A00003CB600087B7D413A3078253015
:101A5000325809443A3078253032580D0A000000D7
:101A60007B7D43616D65726120696E6974204F4BA7
:101A70002E0D0A0000B583B000210291019140684B
:101A800002AA0B2101F06AFF01909DF804000428CE
:101A900002D003B0002000BD9DF8080003B000BDD7
:101AA00010B50446002C16D0207B012815D001204B
:101AB00020734E2004F0F2FC09480068406A006878
:101AC000C16841F00801C160392004F0E7FC002042
:101AD0002073042010BD012010BD022010BD0000A5
:101AE00038B6000880224068122101F0FDBF10B511
:101AF0000446002C13D0216801200870A06805F06E
:101B0000C1FB0021A06805F09AFC0421A06805F043
:101B100096FC0821A06805F092FC042010BD01206D
:101B200010BD000010B586B01248016841F01001E8
:101B30000160006800F0100000904FF42850019000
:101B40000220029001200390049005900A4C01A904
:101B5000204604F043FBE114019101A9204604F062
:101B60003DFB4FF40051019101A9204604F036FBE2
:101B700006B010BD303802400010024070B5044677
:101B8000002C0ED0486870B1886860B1086850B108
:101B90002079012809D0012020716079002530B119
:101BA0000EE0012070BD012070BD022070BD2571C6
:101BB000086820604868E0608868A0600C4804609D
:101BC00002206071FFF7AEFFE06801F041F8A06805
:101BD00001F060F92068FFF701FB06A008F0E2F9C8
:101BE00004206071204600F017F82571042070BDB4
:101BF000340000207B7D4D756C746920436F6C6FE1
:101C000072204C454420496E697469616C697A653B
:101C1000204F4B2E0D0A000010B582B004466179AA
:101C200019A008F0BFF9607904282BD120681E495B
:101C3000807851F820101DA008F0B4F91FA008F01A
:101C4000B1F94FF40070ADF80400204C009401216C
:101C5000684600F063FFE014ADF8040000941CA097
:101C600008F0A0F90121684600F058FF4FF4005039
:101C7000ADF8040000941AA008F094F90121684618
:101C800000F04CFF02B010BD7B20204D756C7469D4
:101C900020436F6C6F72204C4544207374617465EF
:101CA0003A25647D0D0A0000380000207B20206D5D
:101CB0006F64653A2025737D0D0A00007B2020703B
:101CC000696E204C4544343A000000000010024088
:101CD0007B202070696E204C4544353A000000009E
:101CE0007B202070696E204C4544363A000000008D
:101CF000074B1B68D3F808C0DCF800C0CCF83420D0
:101D00009A681268916399680968C863704700000F
:101D10003400002000B583B006490291F0310191F2
:101D2000A1F51C710091C06A6946FFF727FF03B057
:101D3000042000BD1C03002010B5846BA26A806BD8
:101D4000002A806B016821D00A6802F40022A36A8D
:101D500013F0010F0BD152B1C968E26A01EBC20165
:101D6000002203F08EFAA06A401EA06220E00A68FA
:101D700012F4002F1CD10969E26A01EBC2010122B1
:101D800003F07FFAA06A401EA06211E0086810F418
:101D9000002F02D0606BC8600AE0086810F4002FC2
:101DA00006D1606BE26A00EB82000861206BA062E2
:101DB000A06A216B884207D12068006810F0020FEA
:101DC00002D0012084F8250010BD000070B5044643
:101DD000002C0AD0086850B12079012809D00120D0
:101DE00020716079002530B108E0012070BD01202C
:101DF00070BD022070BD25710868206002206071EE
:101E0000204600F023F821680871204600F0DCF835
:101E100020680179044850F8212004A008F0C2F895
:101E200004206071257170BDACB600087B7D466FE3
:101E3000756E6420657874656E6420626F6172648B
:101E4000202564282573292E0D0A000070B506464A
:101E5000002500246D222146304600F017F8A040EE
:101E60002844C5B2601CC4B2082CF3D30020064934
:101E70000A5CAA4203D0401CC0B20528F8D305284A
:101E800000D1002070BD00009A0000202DE9F04331
:101E900085B00C4616460025072C03D905B0002056
:101EA000BDE8F0834FF4805000904FF00008CDF86B
:101EB0000480CDF80880DFF888906946484604F031
:101EC0008DF9022009F010F8012101FA04F70097BA
:101ED0000191029103916946484604F07FF902207E
:101EE00009F002F8002426FA04F000F00102B9B269
:101EF000484604F09EFA022008F0F6FF4FF48051A5
:101F0000484604F08BFAA0402844C5B2601CC4B215
:101F1000082CE8D3CDF80480CDF8088069464846FF
:101F200004F05CF9022008F0DFFFB54203D105B0F0
:101F30000120BDE8F08305B00020BDE8F08300007B
:101F4000000C024038B510490091C06C6946FFF79B
:101F50003DFF0E4800680C30FFF75BFC88B90CA011
:101F600008F020F8174C4FF461212068006B01F055
:101F70002DFB042805D121684FF44870096B0968CE
:101F80004883042038BD00000400002074000020B5
:101F90004B657931207075736865642C20656E74AB
:101FA0006572696E6720686967682073706565642B
:101FB00020554152542028393231363030290D0A0B
:101FC0000000000038B6000810B586B0006800793F
:101FD000012801D002280ED1FF200190012002909B
:101FE0000390064C01A9204604F0F8F80122FF21D5
:101FF000204604F01EFA06B0042010BD000C02407A
:102000002DE9F04F8BB000216B48026842F00102CD
:102010000260026802F001020092026842F00202CD
:102020000260026802F002020092026842F00402BA
:102030000260026802F004020092026842F00802A4
:102040000260026802F008020092026842F0100288
:102050000260026802F010020092026842F0800200
:102060000260006800F0800000900124079408944A
:1020700009940291039104940425069506A94F48FA
:1020800004F0ACF84FF48058CDF8188006A94C48FD
:1020900004F0A4F86603069606A94A4804F09EF8E0
:1020A0006002069006A9484804F098F84FF40069C9
:1020B000CDF8189006A9444804F090F8019401A9BD
:1020C0003E4804F08BF84FF0020BCDF804B001A9A4
:1020D0003A4804F083F8E703019701A9374804F070
:1020E0007DF81020019001A9354804F077F8019699
:1020F00001A9334804F072F84FF4804ACDF804A0E7
:1021000001A92F4804F06AF8019701A92C4804F0AE
:1021100065F8019401A92A4804F060F8CDF804B0EC
:1021200001A9274804F05AF84FF0080BCDF804B085
:1021300001A9234804F052F82402019401A923487C
:1021400004F04CF8CDF8049001A9204804F046F8BA
:10215000019501A91A4804F041F8019701A91A480C
:1021600004F03CF8019401A9154804F037F8CDF8C3
:10217000048001A9154804F031F8019601A913481B
:1021800004F02CF8CDF804A001A9104804F026F8BA
:10219000019401A9094804F021F8019501A90A4810
:1021A00004F01CF8CDF804B001A9074804F016F8B3
:1021B0000BB0BDE8F08F0000303802400000024054
:1021C00000080240000C02400010024000040240DF
:1021D00010B582B000210091019104684FF6FF70A4
:1021E000A278072A21D2DFE802F020040A14181C82
:1021F0000800FFF76FF80620A07002B010BD08209D
:10220000FFF72AF80420FFF727F80020FFF724F84B
:102210000EE02082218421860AE02182208421860A
:1022200006E021822184208602E021822184218609
:10223000228E218C208A02B0BDE81040FFF758BDE5
:10224000002806D0012807D0022808D005480068D9
:1022500070470548006870470448006870470448A4
:1022600000687047002004E0107AFF1F147AFF1FF7
:10227000187AFF1F00B585B04FF4004000900A485F
:10228000019000200290012003906946074803F066
:10229000A5FF00220721282004F038F9282004F0A7
:1022A000FDF805B000BD0000000021100000024054
:1022B0002DE9F04FA1B0804614250024002688F8AF
:1022C0000B604FF0010988F80C901F9620964FF094
:1022D000100A8DF87CA08DF87D90FE4FFEA007F0CF
:1022E00061FE38681430FFF787FA1FA9404601F0F5
:1022F0009DFC611CCCB2042801D0AC42EED31F96E9
:10230000209611208DF87C008DF87D908DF87E90C0
:10231000FAA007F047FE38681430FFF76DFA1FA9DE
:10232000404601F083FC611CCCB2042801D0AC42D1
:10233000EED31F96209612208DF87C008DF87D90AC
:102340008DF87F9005208DF88100F5A007F02AFE1A
:1023500038681430FFF750FA1FA9404601F066FCB8
:10236000611CCCB2042801D0AC42EED31C961D9661
:102370001E9620208DF870008DF871908DF8729067
:102380008DF873908DF874A04FF4407BADF876B063
:10239000ECA007F007FE38681430FFF72DFA1CA9EF
:1023A000404601F0EAFD611CCCB2042801D0AC42E9
:1023B000EED31C961D961E9624208DF870008DF885
:1023C00071908DF872908DF873908DF874A0ADF8BF
:1023D00076B0DCA007F0E6FD38681430FFF70CFAA1
:1023E0001CA9404601F0C9FD611CCCB2042801D0F3
:1023F000AC42EED31C961D961E9628208DF87000D8
:102400008DF871908DF872908DF873908DF874A09E
:10241000ADF876B0CBA007F0C5FD38681430FFF7F3
:10242000EBF91CA9404601F0A8FD611CCCB20428C0
:1024300001D0AC42EED319961A961B9680208DF8E7
:1024400064008DF865908DF866904FF0110A8DF854
:1024500068A040F6FF7BADF86AB0C3A007F0A2FD0C
:1024600038681430FFF7C8F919A9404601F03AFC62
:10247000611CCCB2042801D0AC42EED3169617965C
:10248000189684208DF858008DF859908DF85A9040
:102490008DF85CA0ADF85EB0BFA007F083FD386892
:1024A0001430FFF7A9F916A9404601F01BFC611C86
:1024B000CCB2042801D0AC42EED315968DF85490DE
:1024C0008DF855904FF4E060ADF85600BEA007F0CF
:1024D00069FD38681430FFF78FF915A9404601F0FF
:1024E00065FB611CCCB2042801D0AC42EED311963E
:1024F0001296139614968DF844908DF846608DF8D8
:1025000045908DF847908DF848908DF849908DF85A
:102510004A6064208DF84E0080208DF84F00B4A0F2
:1025200007F040FD38681430FFF766F911A94046FE
:1025300001F02AFC611CCCB2042801D0AC42EED3DD
:102540000F96109608208DF83C004FF04D0A8DF83C
:102550003DA04FF0500B8DF83EB08DF842608DF8E5
:1025600040608DF84160ADA007F01CFD3868143064
:10257000FFF742F90FA9404601F082FC611CCCB282
:10258000042801D0AC42EED30D960E968DF834900F
:102590008DF835A08DF836B04FF0FA0A8DF837A0D7
:1025A0008DF83A608DF838608DF83960A7A007F093
:1025B000F9FC38681430FFF71FF90DA9404601F007
:1025C0005FFC611CCCB2042801D0AC42EED30B9668
:1025D0000C9602208DF82C005A208DF82D004FF01B
:1025E0003C0B8DF82EB0FA208DF82F008DF832605C
:1025F0008DF830908DF831609EA007F0D3FC3868DC
:102600001430FFF7F9F80BA9404601F039FC611CC2
:10261000CCB2042801D0AC42EED309960A9603202E
:102620008DF824008DF825B04FF05A0A8DF826A0B9
:10263000FA208DF827008DF82A608DF828608DF833
:10264000299096A007F0AEFC38681430FFF7D4F854
:1026500009A9404601F014FC611CCCB2042801D049
:10266000AC42EED30796089604208DF81C00322069
:102670008DF81D008DF81E0064208DF81F008DF868
:1026800022608DF820908DF821908EA007F08AFCB2
:1026900038681430FFF7B0F807A9404601F0F0FBA6
:1026A000611CCCB2042801D0AC42EED3059606964C
:1026B00005208DF814008DF815A00A208DF816005D
:1026C0006FF0370A8DF817A08DF81A608DF8189002
:1026D0000CE10000740000207B20204D6F74696FB6
:1026E0006E3A20436F6E6669677572696E67204C3B
:1026F0004544312E2E2E0D0A000000007B20204D77
:102700006F74696F6E3A20436F6E666967757269A0
:102710006E67204C4544322E2E2E0D0A000000001C
:102720007B20204D6F74696F6E3A20436F6E66692F
:10273000677572696E67204C4544332E2E2E0D0A44
:10274000000000007B20204D6F74696F6E3A2043BB
:102750006F6E6669677572696E6720544352545F85
:1027600043432E2E2E0D0A007B20204D6F74696F7F
:102770006E3A20436F6E6669677572696E67204CAA
:102780006967687453656E736F725F6C6566742EEB
:102790002E2E0D0A000000007B20204D6F74696F03
:1027A0006E3A20436F6E6669677572696E67204C7A
:1027B0006967687453656E736F725F726967687476
:1027C0002E2E2E0D0A0000007B20204D6F74696FA5
:1027D0006E3A20436F6E6669677572696E6720494D
:1027E0006E6672617265642E2E2E0D0A0000000066
:1027F0007B20204D6F74696F6E3A20436F6E66695F
:10280000677572696E67204D6F74696F6E207365AE
:102810007474696E67732E2E2E0D0A007B20204D76
:102820006F74696F6E3A20436F6E6669677572697F
:102830006E6720436F6E665F44656661756C744DAC
:102840006F74696F6E2E2E2E0D0A00007B20204DB6
:102850006F74696F6E3A20436F6E6669677572694F
:102860006E6720436F6E665F46726F6E742E2E2EFB
:102870000D0A00007B20204D6F74696F6E3A204373
:102880006F6E6669677572696E6720436F6E665F0B
:102890004C6566742E2E2E0D0A0000007B20204D04
:1028A0006F74696F6E3A20436F6E666967757269FF
:1028B0006E6720436F6E665F52696768742E2E2EB6
:1028C0000D0A00007B20204D6F74696F6E3A204323
:1028D0006F6E6669677572696E6720436F6E665FBB
:1028E0004261636B2E2E2E0D0A0000008DF81990A8
:1028F0003DA007F057FB38681430FEF77DFF05A9AF
:10290000404601F0BDFA611CCCB2042801D0AC42B3
:10291000EED30396049606208DF80C008DF80DB0CA
:10292000A0208DF80E008DF80FA08DF812608DF8A4
:1029300010608DF8119038A007F034FB386814301F
:10294000FEF75AFF03A9404601F09AFA611CCCB287
:10295000042801D0AC42EED30196029607208DF8F0
:1029600004001B208DF805001E208DF806008DF850
:1029700007608DF80A608DF808608DF8096032A054
:1029800007F010FB38681430FEF736FF01A9404607
:1029900001F076FA611CCCB2042801D0AC42EED32F
:1029A000AC4203D321B00120BDE8F08F404601F0D6
:1029B000E5F8042808D038681430FEF71DFF4046BB
:1029C00001F0DCF80428F6D1282003F067FD2A483E
:1029D0000068806C006800F1090101F0B7F821B0CF
:1029E0000420BDE8F08F00007B20204D6F74696FDC
:1029F0006E3A20436F6E6669677572696E67204D27
:102A00006F74696F6E20436F6E665F4E6577312E0F
:102A10002E2E0D0A000000007B20204D6F74696F80
:102A20006E3A20436F6E6669677572696E67204DF6
:102A30006F74696F6E20436F6E665F4E6577322EDE
:102A40002E2E0D0A000000007B20204D6F74696F50
:102A50006E3A20436F6E6669677572696E67204DC6
:102A60006F74696F6E20436F6E665F4E6577332EAD
:102A70002E2E0D0A0000000038B6000870B504467E
:102A80000D46002C0AD0686840B12079012807D093
:102A9000012020716079002620B106E0012070BD80
:102AA000022070BD2671286820600220607168686D
:102AB0004079042805D00CA007F074FA2671012093
:102AC00070BD2946204608F0E9FAFFF7D3FB2946F6
:102AD0002068FFF7EDFB042802D06671267170BDF7
:102AE00004206071267170BD6E65656420746F206E
:102AF000696E69742072656C617465642055415219
:102B000054206265666F726520696E6974696E67CC
:102B1000206D6F74696F6E0D0A000000F0B585B00E
:102B2000002403689905890D23D19912A1F580111C
:102B300080390B291DD2DFE801F006080A0C0E10BF
:102B4000121416181A00412114E0422112E0432108
:102B500010E044210EE045210CE046210AE0472127
:102B600008E0482106E0492104E04A2102E04B2127
:102B700000E04F21B0F804C00020BCF1000F04D0E9
:102B8000401CC0B23CFA00F2FAD1401EC2B21D682D
:102B90005000C54005F003059E68C64006F00306D8
:102BA000DF6827FA00F000F00307586810EA0C0FFE
:102BB00000D00124072A07D9586AA2F108039B0014
:102BC000D84000F00F0004E0186A9300D84000F0ED
:102BD0000F000C4BDFF830C053F824300B4C5CF87E
:102BE00027C054F8264003900948CDF804C000944B
:102BF000029350F8253007A007F0D4F905B0002063
:102C0000F0BD000074B600089CB600088CB6000841
:102C10007CB600087B50696E3A50256325642C20F1
:102C20004D4F44453A25732C2053706565643A2511
:102C3000732C2050756C6C3A2573286D6F64653A5F
:102C40002573292C2041463A25647D0D0A00000099
:102C500082B007490A6842F040020A60096801F040
:102C6000400101910349016002B004F044BA000040
:102C700034380240000806500E49522802D0002085
:102C800008707047087818B1522805D000207047A6
:102C90005220087001207047BFF34F8F064801682B
:102CA000064A01F4E06111430160BFF34F8F00BF9A
:102CB000FDE70000700000200CED00E00400FA05C4
:102CC00070B50446324860603C30A0603C30E06043
:102CD0003C3020613C3060610C30A0614030E061EC
:102CE000A030606260382062A0F54470A062B0300D
:102CF00020636838E0622748A0630830E06308304A
:102D0000206425486064603860632448A06408300B
:102D1000E0642046FEF782FD204600F0C1F920461F
:102D2000FEF7F8FF204600F0EFFD204600F008FD1A
:102D3000204601F06FF92046FFF704F9A06AFEF77C
:102D40005FFDE06AFEF7D3FE16481549C160616C6D
:102D500009680831816004F0B9FC0220FFF770FABD
:102D600004460120FFF76CFA05460020FFF768FAD9
:102D7000014623462A460CA007F014F90320FFF76A
:102D80005FFA01460EA007F00DF9042070BD0000A7
:102D90001C0300200C000020FC0200202400002066
:102DA00000000010E81C01207B7D43505549443A47
:102DB00020253038582D253038582D2530385800EA
:102DC0002D253038580D0A00F0B5A1B000262F4847
:102DD000016841F080510160006800F0805001906E
:102DE0002B48016841F440410160006800F4404014
:102DF000019001241494159402251A95A0051B90A6
:102E000019201C904FF4B4701D901E9504271F9735
:102E100014A803F057FF08B101F0B2FA03F0BCFBAD
:102E200008B101F0ADFA0F200F90109511964FF4F4
:102E3000A05012904FF48050139005210FA803F07A
:102E40007FFD08B101F09CFA0294D520039004970D
:102E500002A803F0F1FB08B101F092FA00224FF44E
:102E60008001104603F0DEFE03F062FE4FF47A713B
:102E7000B0FBF1F004F070F9042004F05DF90021DA
:102E80000122481E03F042FB21B0F0BD4038024051
:102E90000070004030B597B0044600253548016801
:102EA00041F001010160006800F00100019032482A
:102EB000206001206060A5604FF6FF70E060256132
:102EC0006561204604F0C1F908B101F059FA4FF4E8
:102ED0008050129012A9204604F0E1F908B101F0E7
:102EE0004FFA204604F08EFA08B101F049FA10209A
:102EF0001090119510A9204604F074F908B101F062
:102F00003FFA09950A950B950C950D954FF40050D5
:102F10000E900F9509A9204604F036F908B101F08A
:102F20002FFA6020029003950220049005950695E3
:102F300007950895002202A9204604F038FA08B146
:102F400001F01EFA0395042202A9204604F02FFA8C
:102F500008B101F015FA0395082202A9204604F0F1
:102F600026FA08B101F00CFA204604F08AF917B0ED
:102F700030BD0000443802400000014030B589B047
:102F8000044600251748016841F00101016000680E
:102F900000F0010001904FF0804020600820606048
:102FA000A560681EE0602561204604F04EF908B176
:102FB00001F0E6F94FF48050049004A9204604F093
:102FC0006EF908B101F0DCF90295039502A92046DB
:102FD00004F008F908B101F0D3F9204604F052F9E1
:102FE00009B030BD4038024010B5074C2068C06AB7
:102FF000FFF7EEF82068006B05F0F5FA2068406BEB
:10300000BDE8104005F0EFBA38B6000830B589B019
:10301000044600251F48016841F002010160006874
:1030200000F0020001901C48206059206060A560FB
:103030004CF25030E0602561204604F006F908B1FA
:1030400001F09EF94FF48050049004A9204604F04A
:1030500026F908B101F094F90295039502A92046DA
:1030600004F0C0F808B101F08BF9204604F00AF929
:103070000A4801220721406890F9700003F046FADF
:103080002068C16841F00101C160FDF795FF09B0FA
:1030900030BD0000403802400004004070000020B5
:1030A00010B586B04FF4E13300224FF00C0C4FF412
:1030B00000441949C1F80C33C1F81023C1F8142396
:1030C000C1F81823C1F81CC3C1F82023C1F8244358
:1030D00001F54271114B0B600191A1F50171009155
:1030E000343902913221ADF80C100A21ADF80E10DE
:1030F0000D238DF810308DF811108DF812208DF8F9
:10310000132001218DF814108DF81510006B6946FD
:1031100000F0D6F806B010BD1001002000100140EC
:1031200070B506460D4633685C8A587F10F0010F73
:1031300003D02946586805F0BCFA187F002832D120
:10314000198AC81EA04218DC587F10F0020F06D062
:10315000022018773046BDE8704000F023BAA1F194
:103160000A0084B2988A401C81B29982052904D948
:103170003046BDE8704000F015BA9868055598785B
:103180004FF0000C012278B101280CD158780109C8
:1031900024D0012932D004295CD008294FD000F076
:1031A0000F0058701A7770BDD87FA84212D1022C38
:1031B00010D99968601E9E7F0D5CB5420AD15D7F73
:1031C00015F0040F05D101F800C0996801F804C09A
:1031D00058821A77588A401C588270BDD87FA842FE
:1031E000FBD09868057083F82050588A401C58829C
:1031F000587800F00F001030587070BD99685E8AE2
:10320000761C5E82DE7FAE420BD100F00F0058705C
:103210001A77587F10F0040FEFD101F804C05C82D8
:1032200070BD93F82010A94204D100F00F00803047
:10323000587070BD00F00F004030587070BD996834
:10324000621E05F120008854587800F00F004030CD
:10325000587070BD99685E8A761C5E82DE7FAE42D1
:103260000BD100F00F0058701A77587F10F0040F40
:10327000EFD101F804C05C8270BD93F82010A94220
:1032800004D100F00F008030587070BD00F00F00C6
:103290004030587070BD002809D00279012A08D04A
:1032A00001220271002331B101680A7005E001209A
:1032B00070470220704701680B700371042070474B
:1032C0002DE9F04104460D46002C12D0286898B133
:1032D000686888B1A86878B1A88968B1E88958B1E8
:1032E000207901280BD0012727716079002648B189
:1032F0000DE00120BDE8F0810120BDE8F081022051
:10330000BDE8F0812671286820606868A06002200E
:1033100060712946204600F02DF82946204600F02D
:10332000D5F8054629460BA006F03CFE206840680B
:10333000A0F18041B1F5883101D10D48077004201A
:10334000607101222946204600F05AF926710420B6
:10335000BDE8F0817B7D5541525420256420496EA3
:10336000697469616C697A65204F4B2E0D0A000003
:103370005400002010B50446A06804F07CF8A06852
:1033800004F0C2F8A06804F08CF808B100F0F8FF6F
:10339000A0680068A0F18041B1F5883114D0A0F197
:1033A0008041B1F598411FD101220221342003F060
:1033B000ADF8A0680068C16841F02001C160BDE8B7
:1033C0001040342003F06AB801220221252003F0C6
:1033D0009DF8A0680068C16841F02001C160BDE8A7
:1033E0001040252003F05AB810BD38B58446DCF8EB
:1033F000084021680868CB684A694968009100F074
:103400000F01002941D040F201110A425CD010F0B6
:10341000010F06D013F4807F03D0E16B41F001016E
:10342000E16310F0040F06D012F0010F03D0E16B3E
:1034300041F00201E16310F0020F06D012F0010F1B
:1034400003D0E16B41F00401E16310F0080F06D0F6
:1034500012F0010F03D0E16B41F00801E163E16B71
:1034600061B310F0200F07D013F0200F04D09DF8A7
:1034700000106046FFF754FE20684169C1F38011D7
:10348000E26B12F0080F0DD10BE010F0200F1BD0F3
:1034900013F0200F18D09DF800106046FFF740FE93
:1034A00012E061B1C16821F49071C1602068416986
:1034B00021F001014161202084F83A0004E0204617
:1034C00003F0EEFF0020E063042038BD03688A6843
:1034D0009A6003688A891A820368CA895A834A688B
:1034E000036812685A6003680A7C9A7703684A7C0A
:1034F000DA7703688A7C9A7003680422DA700368BA
:1035000000221A7003688A689A6003688A891A829E
:10351000CA7C002A04D00268537F43F0010353772A
:103520000A7D22B10268537F43F002035377497D3D
:1035300021B101684A7F42F004024A770068184AC4
:103540004068811A904226D00EDCA0F18040B0F590
:10355000884016D0B0F5806F15D0B0F5006F14D04C
:10356000B0F5406F09D112E0B1F5806F15D0B1F51B
:10357000184F04D0B1F51C4F0BD004207047012028
:1035800070470220704703207047042070470520D1
:1035900070470620704707207047082070470000DA
:1035A0000078004030B504462568207901280BD00A
:1035B00001202071284601F047FD00206882A88282
:1035C00028772071042030BD022030BD10B504469C
:1035D000002C0CD0207901280BD001202071A0688C
:1035E0004160A06803F05DFF28B1012010BD0120FB
:1035F00010BD022010BD00202071042010BD00006D
:1036000010B50446002A24D0627912A006F0CAFC44
:10361000607904281DD120681749807851F820105E
:1036200016A006F0BFFC2068018A18A006F0BAFCBC
:103630002068418B1BA006F0B5FC2068817F1FA08D
:1036400006F0B0FC2068C17FBDE8104021A006F064
:10365000A9BC10BD7B20205541525420256420492F
:103660006E697469616C697A652073746174653A16
:1036700025647D0D0A000000580000207B20206D8D
:103680006F64653A2025737D0D0A00007B2020526F
:103690007842756666657253697A653A2025647D5D
:1036A0000D0A00007B202054785061636B65742004
:1036B00053697A653A2025647D0D0A007B202065D8
:1036C000736361706520313A20307825587D0D0A8A
:1036D000000000007B202065736361706520323A32
:1036E00020307825587D0D0A00000000002804D005
:1036F0004379042B03D001207047012070470368F1
:1037000093F803C01CF0010F01D00220704790F81D
:1037100004C0BCF1010F11D04FF0010C80F804C0BF
:10372000D9600168CA82016800220A830168CB78E7
:1037300043F01003CB7002710420704702207047E1
:1037400000B587B0416A0391016A0291816B0191D2
:1037500003490091406C6946FEF7A2F807B000BD2E
:10376000F002002010B50446617B12A006F01AFC9E
:10377000607B04281DD16068417917A006F012FC17
:10378000A06890F825101CA006F00CFCA068806BC7
:1037900090F8351020A006F005FC2068416828A0AC
:1037A00006F000FC20688168BDE810402BA006F000
:1037B000F9BB10BD7B202063616D65726120496E8D
:1037C000697469616C697A652073746174653A25FE
:1037D000647D0D0A000000007B20205343434220FB
:1037E000496E697469616C697A6520737461746586
:1037F0003A25647D0D0A00007B202044434D49207A
:10380000496E697469616C697A6520737461746565
:103810003A25647D0D0A00007B2020444D41206F35
:10382000662044434D4920496E697469616C697A28
:10383000652073746174653A25647D0D0A0000008B
:103840007B2020444D41207472616E736665722046
:10385000636F756E743A25647D0D0A007B202069C4
:103860006D61676520636170747572656420636F54
:10387000756E743A25647D0D0A00000070B504462B
:10388000002C12D0486890B1C86880B1888A70B1A5
:10389000887D60B1086850B12079012809D00120E5
:1038A00020716079002530B108E0012070BD012051
:1038B00070BD022070BD2571086820600220607113
:1038C000204607F0F5FB206807F016FD204600F0C3
:1038D000E9F821680420C870607105A006F062FB59
:1038E0000121204600F064F82571042070BD00001D
:1038F0007B7349324320496E697469616C697A65EA
:10390000204F4B2E7D0D0A0010B586B00446D02006
:103910008DF816000F48009000208DF817000E203B
:10392000ADF814000C4801908115ADF80810039013
:10393000C014ADF810006946E06BFFF79FFF042844
:1039400006D118208DF816006946206CFFF796FF07
:1039500006B010BDCC0200200004024010B50446A1
:10396000002C04D06079042803D0012010BD012070
:1039700010BD2068C378042B01D0022010BD23792C
:10398000012B12D00123237194F806C080F822C0C5
:10399000206880F8231020684261206883772068BF
:1039A00007F0F7FB0021217110BD022010BD0000BF
:1039B00070B504460D46002D2AD0617915A006F099
:1039C000F1FA6079042823D120681A49807851F8E7
:1039D000201019A006F0E6FAA1791EA00A4606F00A
:1039E000E1FA24A006F0DEFA20682946001DFFF760
:1039F00095F823A006F0D6FA206829460C30FFF788
:103A00008DF82068818BBDE8704020A006F0CABA0E
:103A100070BD00007B20207349324320496E6974D9
:103A200069616C697A652073746174653A25647D97
:103A30000D0A00006CB600087B2020696E74657268
:103A400066616365206D6F64653A2025737D0D0A9C
:103A5000000000007B202064657669636520616456
:103A600064726573733A202564283078253278298A
:103A70007D0D0A007B202070696E2053434C3A0074
:103A80007B202070696E205344413A007B202070D7
:103A9000756C73652064656C61793A2025647D0DD1
:103AA0000A00000000281BD0017901291AD0012149
:103AB000017101680022CA7701688A77016881F87C
:103AC0002120016881F8202001684B1C4B610168AE
:103AD0004B1C8B6103680421D9700271042070476C
:103AE000012070470220704737B50446002C05D0EE
:103AF0006079042805D003B0012030BD03B0012057
:103B000030BD2068C278042A02D003B0022030BD44
:103B10002279012A17D001222271A37980F822305C
:103B2000206880F82310216802A88861206880F846
:103B30002020206807F04CFC22680421D17000216D
:103B4000217103B030BD03B0022030BD10B584B088
:103B50000C4600220192029203924068022301AABD
:103B6000032104F000F9042806D19DF80500207017
:103B70009DF806006070042004B010BD08B5022155
:103B80008DF8001080218DF80110017A002905D0F0
:103B900040680222694606F0C1F904E0406802224A
:103BA000694606F0F7F90428FFD108BD08B50022E0
:103BB000009288228DF800200A78012A05D19DF80C
:103BC000012042F080028DF801204A78012A05D1B7
:103BD0009DF8012042F040028DF801204A8840F60D
:103BE000FF739A4209D39DF8011041F00F018DF83F
:103BF0000110FF218DF802100AE09DF8013002F05B
:103C00000F021A438DF80120498809098DF8021026
:103C1000017A29B140680222694606F07FF908BDA1
:103C200040680222694606F0B5F908BD08B50022D1
:103C300000920A788DF800204A78012A21D09DF858
:103C4000012022F080028DF801208A78012A1FD0FD
:103C50009DF8012022F040028DF80120CA78012A47
:103C60001DD09DF8012022F020028DF801204A7914
:103C70000F2A1BD39DF8011041F00F018DF80110A0
:103C800020E09DF8012042F080028DF80120DCE761
:103C90009DF8012042F040028DF80120DEE79DF8FA
:103CA000012042F020028DF80120E0E79DF801207C
:103CB00022F00F028DF80120497901F00F01114324
:103CC0008DF80110017A29B140680222694606F098
:103CD00025F904E040680222694606F05BF90428F1
:103CE000FFD108BD08B5002200920A788DF80020A7
:103CF0004A78012A05D19DF8012042F080028DF812
:103D000001208A78012A05D19DF8012042F0400265
:103D10008DF80120CA78012A05D19DF8012042F0D2
:103D200020028DF801200A79112A05D19DF8012081
:103D300042F010028DF80120CA8840F6FF739A42C3
:103D400009D39DF8011041F00F018DF80110FF21FA
:103D50008DF802100AE09DF8013002F00F021A43BC
:103D60008DF80120C98809098DF80210017A29B15E
:103D700040680322694606F0D1F808BD4068032276
:103D8000694606F007F908BD00B583B0002201922C
:103D9000029290228DF804200A78012A05D19DF81C
:103DA000052042F080028DF805208A789AB1012A18
:103DB00004D0022A09D003B0012000BD9DF80520DF
:103DC00042F020028DF8052005E09DF8052042F024
:103DD00040028DF805204A78012A05D19DF805207A
:103DE00042F010028DF80520CA78012A05D19DF80D
:103DF000062042F080028DF806200A79012A05D1BA
:103E00009DF8062042F040028DF806204A79012AEA
:103E100005D19DF8062042F020028DF806208A790F
:103E2000012A05D19DF8062042F010028DF80620E7
:103E30004A7B012A05D19DF8062042F008028DF840
:103E400006208A7B012A05D19DF8062042F0040253
:103E50008DF806208A7A8DF80720C97A8DF8081027
:103E6000017A31B14068052201A906F057F803B084
:103E700000BD4068052201A906F08CF803B000BD22
:103E800008B5002200920A78092A2FD2DFE802F052
:103E90002E05090D1115191D2100A3228DF80020F2
:103EA0001AE0A6228DF8002016E0A9228DF8002045
:103EB00012E0AC228DF800200EE0AF228DF8002039
:103EC0000AE0B2228DF8002006E0B5228DF800202D
:103ED00002E0A0228DF800204A788DF801208A782F
:103EE0008DF802208A79012A02D007E0012008BD5E
:103EF0009DF8032042F004028DF803200A79012A7C
:103F000005D19DF8032042F002028DF803204A7982
:103F1000012A05D19DF8032042F001028DF803200B
:103F200091F90320002A05DA9DF8032042F080026F
:103F30008DF8032091F9031001F10F021E2A06D912
:103F40009DF8031041F078018DF8031007E09DF80B
:103F50000320782303EAC10111438DF80310017A8D
:103F600029B140680422694605F0D8FF08BD4068C1
:103F70000422694606F00EF808BD08B5002200923A
:103F80000A788DF800204B78012B05D19DF801307F
:103F900043F080038DF801308B78012B05D19DF81B
:103FA000013043F040038DF80130CB78012B05D16F
:103FB0009DF8013043F020038DF801300B79112B6F
:103FC00005D19DF8013043F010038DF80130C98808
:103FD00040F2FF33994207D342F003018DF80010FD
:103FE000FF218DF8011007E001F003031A438DF85B
:103FF000002089088DF80110017A29B14068032258
:10400000694605F08BFF08BD40680322694605F04C
:10401000C1FF08BD10B5B6B004464FF41642019278
:10402000002006900C2305930790049003900290C3
:10403000E1698860C860086188614B614A60C86155
:10404000E2691D491160E16909911C4908913439FF
:104050000A913221ADF82C100A21ADF82E108DF8FE
:10406000330001218DF834108DF8350078208DF85B
:1040700030007F208DF831008DF8321008A9606B78
:10408000FFF71EF9042814D10D4801210068406B88
:10409000FFF701F9606BFFF785FA606B0F90094835
:1040A0000E904FF4967006F01FFF0EA9A06CFEF75D
:1040B000E5FC36B010BD0000004C00407802002046
:1040C00038B600080C03002010B5806B816B496D79
:1040D000022902D0012180F8251000F0C2FF10BD96
:1040E00010B5846BA26A806B002A806B016821D0B6
:1040F0000A6802F40022A36A13F0010F0BD152B137
:10410000C968E26A01EBC201002201F0BAF8A06AB4
:10411000401EA06220E00A6812F4002F1CD1096939
:10412000E26A01EBC201012201F0ABF8A06A401E75
:10413000A06211E0086810F4002F02D0606BC86024
:104140000AE0086810F4002F06D1606BE26A00EB09
:1041500082000861206BA062A06A216B88420CD1AA
:104160002068C16841F00101C1602068006810F05A
:10417000020F02D0012084F8250010BD10B5064CB6
:104180002068406A00F070FF2068406C0068816819
:10419000491C816010BD000038B6000810B5064CFF
:1041A0002068006A01F062FE2068406C0068416887
:1041B000491C416010BD000038B6000801680A4B78
:1041C000CAB2103AA3FB02321209084B9B5CC365CA
:1041D000032A04D96FF30901091D816502E06FF319
:1041E00009018165806D7047ABAAAAAA00B80008D2
:1041F000014600208A6A8B69002B0FD0B3F5005F5F
:1042000023D07AB3012A38D0022A36D0032A04D127
:10421000C96A11F0807F00D0012070474AB1012A9D
:104220000DD0022AF9D1C96A11F0807FF5D00120A2
:104230007047C96A11F0807FFAD001207047C96ABF
:10424000B1F1C07FFAD10120704762B1012A0CD0D0
:10425000022A10D0032AF7D1C96AB1F1C07FF3D185
:104260000120704709E001207047C96A11F0807F82
:10427000FAD0012070470120704701207047D0F824
:1042800000C0CCF804308368402B04D003689960E8
:104290000068C260704703689A600068C160704738
:1042A00010B4D0F800C0DCF8004024F48024CCF82E
:1042B0000040D0F800C0CCF804308368402B05D013
:1042C000036899600068C26010BC704703689A6018
:1042D0000068C16010BC70477047000070B584B0C2
:1042E0000E460024C16801F5204191F8132780682B
:1042F0001B490068A1FB00314908A1EB81010D18A1
:1043000046F67811884201D3532407E032B11548AC
:1043100000681C30FDF770FAB5B15224EEB10020F0
:10432000019002900390104D012301AA2868972163
:10433000806C0068406803F016FD9DF8050000F0F1
:104340000F00092802D008E04C24E7E72868002283
:104350002146806C006806F0F3FD04B0002070BDBB
:10436000ABAAAAAA7400002038B60008012001F008
:1043700029BF4FF4004001F025BF022001F022BF09
:10438000FEE70000000000002DE9F04F07462DED8C
:10439000108BB1B0FA6828924AF2107011184AF2E4
:1043A000B470104400232093632440F652331993D1
:1043B00001F1940307931B1D069391ED1D8AD1ED26
:1043C0001E8AD1ED24DA4B791D934B781F938B789D
:1043D0001E938B68059391ED15EA01F15C052E1D86
:1043E000D1ED20EA91ED22FAD1ED21FA91ED27CA23
:1043F000D1ED28CA031D0493CB1C1C930B1D1B93EA
:104400001A903B7D279391ED0B9AD1ED0C9A91ED8B
:104410000DAAD1ED0EAA91ED0FBAD1ED10BA279BDE
:1044200040F27B3113FB01F1289A02EBC10130917C
:104430004AF2B47111443A7D279B01EB8201002BB3
:1044400001F11002039202D14FF0010201E04FF09E
:10445000000200EB820202F11002029201F1180147
:10446000019102D14FF0010101E04FF0000100EB9A
:10447000810000F1180000909FEDFEDA049880EDB5
:1044800000DA1C994FF000000870B868DFF8E88384
:104490000068052804D1D8F800001430FDF7ACF905
:1044A000B86842F2283A0068A0F50C512839514505
:1044B0000CD2504504D1D8F800001430FDF79CF917
:1044C000079880ED00DA069880ED00DAB868006899
:1044D000A0F58C40503850450ED2D8F8000014306A
:1044E000FDF78AF986ED00DA85ED00DA079880EDB0
:1044F00000DA069880ED00DA4FF00F08F7EE005A68
:10450000B0EE4D5A35EEC92A75EEE92A35EECA3AB3
:1045100075EEEA3A35EECB4A75EEEB4A08EB4810F9
:10452000309900EB40000A182799002912D04FF06B
:10453000000140F27B3301FB03F3289901EBC30137
:1045400001EB000343F2B07C02EB0C0705D14FF006
:10455000010104E04FF00101EBE74FF0000140F2F0
:104560007B3901FB09F9289901EBC90101EB00092D
:1045700043F2B07109EB010CC049084421904FF09F
:104580000F00115C2F914FEA4101189102EB0001DD
:10459000A1EB040911F801BC99F800A04FEA5A0AEE
:1045A0000AEB5B0A91F801B00AEB5B0A11F804B060
:1045B0000AEB5B0A19F801BC99F801904FEA9B0BD2
:1045C00021440BEB990911F801BC497809EB9B09CF
:1045D00009EB91011791195C4FEA4101089103EB36
:1045E0000001A1EB040911F801EC99F800B04FEAC1
:1045F0005B0B0BEB5E0B91F801E00BEB5E0B11F824
:1046000004E00BEB5E0B19F801EC99F801904FEA0E
:104610009E0E21440EEB990911F801EC497809EB43
:104620009E0909EB91091899B0EE65DA00EE101AAF
:104630001799B8EE400A20EE091A00EE10AAB8EE5B
:10464000400A00EE291A00EE101A0899B8EE400A46
:1046500001EE901A00EE0A1AB8EE610A00EE021A94
:1046600000EE10BAB8EE400A00EE221A00EE109AE0
:10467000B8EE400A00EE031ABCEEC10A10EE101AA2
:1046800089B21691395C2E91189107EB0001A1EBCC
:10469000040911F801BC99F800A04FEA9A0A0AEB44
:1046A0009B0A91F801B00AEB9B0A11F804B00AEBDF
:1046B0009B0A19F801BC99F801904FEADB0B2144E1
:1046C0000BEBD90911F801BC497809EBDB0909EBBF
:1046D000D10117911CF8001008910CEB0001A1EB1F
:1046E000040911F801EC99F800B04FEA9B0B0BEBB1
:1046F0009E0B91F801E00BEB9E0B11F804E00BEB25
:104700009E0B19F801EC99F801904FEADE0E214456
:104710000EEBD90911F801EC497809EBDE0909EB38
:10472000D109189901EE101A1799B8EE410A01EE55
:10473000901A089920EE2A1A00EE10AAB8EE400A44
:1047400000EE0B1AB8EE610A00EE2B1A00EE101AFA
:10475000B8EE400A00EE231A00EE10BAB8EE400A96
:1047600000EE041A00EE109AB8EE400A00EE241A89
:10477000BCEEC10A10EE101A1FFA81F92F99DDED77
:10478000160A00EE101A0799F8EE600AB8EE400A11
:1047900091ED001A01EE600AB5EEC00AF1EE10FAD2
:1047A00001D2B0EE450A2E9901EE109A00EE901A51
:1047B0000699B8EE411AF8EE600AD1ED001A41EE02
:1047C000C10AF5EEC00AF1EE10FA01D2F0EE450A88
:1047D00028EE000ADDF8849008EEA00ABCEEC00ABC
:1047E00010EE101A09F80010401CC0B25428FFF453
:1047F000C8AE08F1010000F0FF08B8F1390FFFF46E
:104800008DAE0F202690BCEECE0A2698289900EB9C
:10481000401000EB4000014446F660720A442392C7
:1048200048F638321144229130990144259143F2DF
:10483000B072114424911149084421900F20259908
:1048400011F800C001440A1B4F7813789C4411F8FA
:10485000013C3B44634411F804C02144634412F812
:1048600001CC527863441A4411F8013C49781A4447
:10487000114405E0000000007400002038E500202D
:10488000159124990B5C01440A1B4F7892F800C0E3
:10489000634411F801CCBC44634411F804C02144C2
:1048A000634412F801CC52786344134411F8012C8C
:1048B00049781A441144149123990B181A1B13F8C0
:1048C00001CC12F8017C92F80090095C4FEA87084D
:1048D00009EB0C0A08EB5108D044CDF84C8092F853
:1048E00001804FEA890B07EB08020BEB5C0B5A4483
:1048F00002EB010B5A780BEB520BCDF848B04FEAA4
:10490000880E09EB020B0EEB510EF344CDF844B0C8
:104910004FEA590B0BEB8C09CDF8B4B007EB010E45
:1049200003EB040BCE441BF8019C1B5DCE440EEB45
:10493000530ECDF840E002EB810EF2449A440AEBAC
:10494000570707EB580707EB090A9BF80170BA44B1
:104950001FFA8AFACDF83CA0DDF8B4B088440BEB1E
:10496000820AD04408EB5308B844CDF838804FEAA7
:1049700051080CEB030A08EB890BDA44CDF834A09C
:104980004FEA5C0C49440CEB520C614401EB83018F
:1049900039440C91D11808EB870211440B912299EC
:1049A00001EB000CACEB040313F801BCCDF8B0B084
:1049B00093F800A04FEA4B011CF8012C01EB5A01BF
:1049C00001EB52072299095C07EB9107DDF8B0B0C3
:1049D0004FEA5B0993F801B009EB4A0808EB5B0367
:1049E00003EB920303EB5108CDF8ACB09CF8013017
:1049F00008EB9308CDF82880DDF8ACB04FEA5A08F0
:104A000008EB4B0808EB910808EB530809EB9A09EF
:104A100009EB420909EB510B0CEB040919F801EC05
:104A2000CDF8A8E01CF804C00BEB5E0B0BEB9C0B65
:104A3000CDF824B04FEA410B0BEB5A0B0BEB520BAA
:104A40000BEB530B0BEB5C0EDDF8B0B00EEB9B0EDB
:104A5000DDF8ACB00EEB9B0BDDF8A8E00BEB5E0BCA
:104A600099F801E0CDF8A4E00BEB5E091FFA89F993
:104A7000DDF8ACB04FEA9A0A0AEB5B0A0AEB430A8C
:104A80000AEB510ADDF8A4E00AEB9C0A0AEB5E0A85
:104A90004FEA520BDDF8A8E00BEB910B0BEB4E0B42
:104AA0000BEB5C0B920802EB5102DDF8A8E002EB85
:104AB000930202EB5E02DDF8A4E002EB4C0202EB93
:104AC0005E02890801EB5301DDF8A4E001EB5C0113
:104AD00001EB4E0CDDED150AF8EE600AF4EECC0A9F
:104AE000F1EE10FA35DD10EE101A139B594389B21E
:104AF000139110EE101A129B594389B2129110EEC5
:104B0000101A119B594389B2119110EE101A109B83
:104B1000594389B2109110EE101A0F9B594389B274
:104B20000F9110EE101A0E9B594389B20E9110EEA0
:104B3000101A0D9B594389B20D9110EE101A0C9B5F
:104B4000594389B20C9110EE101A0B9B594389B24C
:104B50000B91DDED140AF8EE600AF4EEEC0AF1EECA
:104B600010FA31DD10EE101A79438FB210EE101AE0
:104B70000A9B594389B20A9110EE101A01FB08F101
:104B80001FFA81F810EE101A099B594389B2099156
:104B900010EE101A01FB09F11FFA81F910EE101A3C
:104BA00001FB0AF11FFA81FA10EE101A01FB0BF15A
:104BB0001FFA81FB10EE101A51438AB210EE101A40
:104BC00001FB0CF11FFA81FC219995ED001A0144BB
:104BD0000B1B61EE081A13F801EC9DED131A00EEA1
:104BE00090EAB8EE411AF8EE600A41EEC10A96ED7D
:104BF000001A61EE281A01EE107AB8EE411A41EE61
:104C0000C10AFCEEE00A10EE907A03F8017C95ED03
:104C1000001A1F7861EE081A00EE907A9DED121AC4
:104C2000F8EE600AB8EE411A41EEC10A96ED001A9C
:104C300061EE281A9DED0A1AB8EE411A41EEC10A3A
:104C4000FCEEE00A10EE907A1F7095ED001A5F7886
:104C500061EE081A00EE907A9DED111AF8EE600AE6
:104C6000B8EE411A41EEC10A96ED001A61EE281A1B
:104C700001EE108AB8EE411A41EEC10AFCEEE00ADC
:104C800010EE907A5F7095ED001A11F8013C61EE1C
:104C9000081A00EE903A9DED101AF8EE600AB8EE90
:104CA000411A41EEC10A96ED001A61EE281A9DEDF7
:104CB000091AB8EE411A41EEC10AFCEEE00A10EE04
:104CC000903A01F8013C219B95ED001A219F1B5C55
:104CD00061EE081A00EE903A9DED0F1AF8EE600AA8
:104CE000B8EE411A41EEC10A96ED001A61EE281A9B
:104CF00001EE109AB8EE411A41EEC10AFCEEE00A4C
:104D000010EE903A3B5495ED001A4B7861EE081A7C
:104D100000EE903A9DED0E1AF8EE600AB8EE411AD8
:104D200041EEC10A96ED001A61EE281A01EE10AAB2
:104D3000B8EE411A41EEC10AFCEEE00A10EE903ADC
:104D40004B700B1995ED001A13F8017C61EE081AEF
:104D500000EE907A9DED0D1AF8EE600AB8EE411A59
:104D600041EEC10A96ED001A61EE281A01EE10BA62
:104D7000B8EE411A41EEC10AFCEEE00A10EE907A5C
:104D800003F8017C95ED001A0F5D61EE081A00EE44
:104D9000907A9DED0C1AF8EE600AB8EE411A41EED9
:104DA000C10A96ED001A61EE281A01EE102AB8EE3B
:104DB000411A41EEC10AFCEEE00A10EE902A0A55B3
:104DC00095ED001A597861EE081A00EE901A9DEDE3
:104DD0000B1AF8EE600AB8EE411A41EEC10A96EDE0
:104DE000001A61EE281A01EE10CAB8EE411A41EE1F
:104DF000C10AFCEEE00A10EE901A5970C01CC0B255
:104E00005428FFF41CAD2698C01CC0B226902698EA
:104E10003928FFF4FAAC4FF00F0C874D874E0CEB9E
:104E20004C1000EB4000871943190F2019180A1B7A
:104E300013F8008092F8009091F801A0C84411F88E
:104E4000019CD144C84411F804902144C84412F88C
:104E5000019C5278C844424411F8018C497842447C
:104E600011444EF28F325143C1F3C7413954209A55
:104E7000914200D92091401CC0B25428D6D30CF1E5
:104E8000010000F0FF0CBCF1390FC8D31F98FBF7ED
:104E900028FC41EC180B2098FBF723FC53EC182B53
:104EA000FBF7A2FB41EC180B0598FBF740FC53EC19
:104EB000182BFBF780FAFBF74DFC00EE900A0F234E
:104EC00000248DEE200A03EB431000EB400000EBC2
:104ED000050C81190F201CF800200F5C12FB07F253
:104EE00000EE902AF8EE600A60EE200AFCEEE00A7E
:104EF00010EE902AD2B20A541E9FBA4200D20C542D
:104F0000049A92ED001A0A5C00EE902A049AF8EED8
:104F1000600A71EE200AC2ED000A401CC0B254289B
:104F2000D9D3581CC3B2392BCDD3049890ED000AC5
:104F3000F1EE400A9DED190AB8EE400A20EE2E1A55
:104F400080EE810A10EE100AFBF7F1FB41EC100B2A
:104F500005F056F89FED3A8B51EC100B53EC182BE3
:104F6000FBF729FA41EC100B51EC180B53EC102B0A
:104F7000FBF73AFBFBF7EEFB00EE100A039880ED1F
:104F8000000A0298D0ED000A30EE601AB4EECF1A93
:104F9000F1EE10FA0CD8009890ED001A019831EE5D
:104FA000000A30EE600A20EE2D0A80ED000A04E0CF
:104FB00020EE2D0A019880ED000A01980068B0F1FA
:104FC0007C5F04DA0198B6EE000A80ED000A0198D1
:104FD00090ED000A70EE6F0A9DED1D0AB8EE400AD2
:104FE00020EE800A10EE100AFBF7A1FB41EC100B3B
:104FF00005F006F805F0B0F951EC100BFBF77EFB5D
:105000001A99C0B2087068B11B99097808441B99B5
:10501000C0B20870042807D31C98012101701B98A6
:10502000047001E01B98047031B00020BDEC108BBF
:10503000BDE8F08F0000000038E5002010010120DD
:10504000000000000000F03F0021028A002A07D97A
:10505000002283685A54491CC9B2038A8B42F8D88B
:1050600070477047704700002DE9F0410446206802
:105070000569254F15F0040F4FF004060BD046616B
:10508000E06B40F00200E06384F82560A06B0765E8
:10509000A06B00F0D9FE15F0020F0DD021680220A0
:1050A0004861E06B40F00100E06384F82560A06B8C
:1050B0000765A06B00F0C8FE15F0100F05D0216841
:1050C00010204861204600F074F815F0080F05D054
:1050D000216808204861204600F0D2F815F0010F41
:1050E00010D02068016811F0020F03D0C16821F0D0
:1050F0001E01C1602068C16821F00101C160204625
:10510000FFF7B0FFBDE8F081C940000810B50446C4
:10511000002C03D094F8250010B104E0012010BD4C
:10512000204600F047F8022084F825002068016836
:105130006FF3CB0101606169606822690843E1682F
:1051400011430843A1680843A1690843216A014348
:105150002068026811430160606810281DD14FF477
:105160007F42617F92FAA2F2B2FA82F29140207FEE
:105170004FF47F020843A17F92FAA2F2B2FA82F2C0
:1051800091404FF07F43E27F93FAA3F3B3FA83F3A6
:105190009A4011430843216888612068C16841F042
:1051A0001E01C1600020E063012084F8250000207A
:1051B00010BD70477047000038B5044694F82400CD
:1051C000012829D04FF0010C84F824C0022084F873
:1051D00025002068056845F480450560206805685D
:1051E00025F0020505602068056829430160A16B70
:1051F0002148C863A56B2149E964A16B00250D65B1
:10520000A5622563B3F5803F08D2206800F128012C
:10521000A06B00F099FF25E0022038BDA16B486427
:10522000C4F828C0E3626263E06AB0F5803F09D346
:10523000E06A4008E062A06A4000A062E06AB0F55F
:10524000803FF5D2A06A801EA062A06A2063E06A57
:1052500002EB8003E06A0090206800F12801A06B57
:1052600000F018F82068016841F00101016084F83D
:105270002450002038BD0000E1400008C94000086B
:1052800070470068002A02D0016100207047C160A9
:10529000FBE700002DE9F84F0446DDF828C00020A8
:1052A0000090A068802818D0E06BE0B1606CD0B1AD
:1052B000E06CC0B194F83400012819D0012084F8C2
:1052C000340094F835500020012D14D084F83400B7
:1052D000022000900098BDE8F88F4FF48070606560
:1052E0000120BDE8F88F402060650120BDE8F88FFF
:1052F0000220BDE8F88F022584F8355060652068EB
:10530000056845F4802505602068036163462046F2
:10531000FEF7B5FFDFF8D0E32168F448F44AF54B17
:10532000DFF8D4C3F54DF64EF64FDFF8DC83DFF837
:10533000DC93DFF8DCA3DFF8DCB3714540D98142B0
:1053400001D1202137E0914201D1202133E099425F
:1053500001D120212FE0614501D120212BE0A9427C
:1053600002D14FF4006126E0B14202D14FF4006156
:1053700021E0B94202D14FF400611CE0414502D165
:105380004FF4006117E0494502D14FF4001112E0DB
:10539000514502D14FF400110DE0594502D14FF4AF
:1053A000001108E0DFF870E3714502D14FF40011FD
:1053B00001E04FF00061DFF864E3CEF80010C9E0CF
:1053C000DFF85CE3714540D9814201D1202137E00B
:1053D000914201D1202133E0994201D120212FE0D7
:1053E000614501D120212BE0A94202D14FF4006197
:1053F00026E0B14202D14FF4006121E0B94202D16E
:105400004FF400611CE0414502D14FF4006117E008
:10541000494502D14FF4001112E0514502D14FF439
:1054200000110DE0594502D14FF4001108E0DFF8FA
:10543000E8E2714502D14FF4001101E04FF0006144
:10544000DFF8E0E2CEF8001084E0DFF8DCE271453E
:1054500040D9814201D1202137E0914201D1202160
:1054600033E0994201D120212FE0614501D1202173
:105470002BE0A94202D14FF4006126E0B14202D1F3
:105480004FF4006121E0B94202D14FF400611CE009
:10549000414502D14FF4006117E0494502D14FF474
:1054A000001112E0514502D14FF400110DE05945B1
:1054B00002D14FF4001108E0DFF85CE2714502D13F
:1054C0004FF4001101E04FF00061DFF860E2CEF828
:1054D0000C103FE0814201D1202137E0914201D1FF
:1054E000202133E0994201D120212FE0614501D1F3
:1054F00020212BE0A94202D14FF4006126E0B14205
:1055000002D14FF4006121E0B94202D14FF40061B1
:105510001CE0414502D14FF4006117E0494502D13A
:105520004FF4001112E0514502D14FF400110DE08B
:10553000594502D14FF4001108E0DFF8DCE1714574
:1055400002D14FF4001101E04FF00061DFF8DCE11F
:10555000CEF80810DFF890E12168714540D981420A
:1055600001D1102137E0914201D1102133E099425D
:1055700001D110212FE0614501D110212BE0A9427A
:1055800002D14FF4806126E0B14202D14FF4806134
:1055900021E0B94202D14FF480611CE0414502D1C3
:1055A0004FF4806117E0494502D14FF4801112E0B9
:1055B000514502D14FF480110DE0594502D14FF40D
:1055C000801108E0DFF850E1714502D14FF48011FD
:1055D00001E04FF08061DFF844E1CEF80010EEE02A
:1055E000DFF83CE1714540D9814201D1102137E01B
:1055F000914201D1102133E0994201D110212FE0D5
:10560000614501D110212BE0A94202D14FF4806104
:1056100026E0B14202D14FF4806121E0B94202D1CB
:105620004FF480611CE0414502D14FF4806117E0E6
:10563000494502D14FF4801112E0514502D14FF497
:1056400080110DE0594502D14FF4801108E0DFF8D8
:10565000C8E0714502D14FF4801101E04FF0806144
:10566000DFF8C0E0CEF80010A9E0DFF8BCE071453B
:1056700065D9814201D110215CE0914201D1102114
:1056800058E0994201D1102154E0614501D1102127
:1056900050E0A94202D14FF480614BE0B14202D107
:1056A0004FF4806146E0B94202D14FF4806141E09D
:1056B000414502D14FF480613CE0494502D14FF4AD
:1056C000801137E0514502D14FF4801132E0594545
:1056D00002D14FF480112DE0DFF83CE0714527D175
:1056E0004FF4801126E00000586402401060024030
:1056F0001064024070600240706402402860024002
:105700002864024088600240886402404060024091
:1057100040640240A0600240A06402400C64024069
:10572000B8600240086402405860024000600240D5
:105730004FF08061DFF87CE6CEF80C103FE081424C
:1057400001D1102137E0914201D1102133E099427B
:1057500001D110212FE0614501D110212BE0A94298
:1057600002D14FF4806126E0B14202D14FF4806152
:1057700021E0B94202D14FF480611CE0414502D1E1
:105780004FF4806117E0494502D14FF4801112E0D7
:10579000514502D14FF480110DE0594502D14FF42B
:1057A000801108E0DFF810E6714502D14FF4801156
:1057B00001E04FF08061DFF8FCE5CEF80810DFF87B
:1057C000FCE52168714540D9814201D1082137E0CB
:1057D000914201D1082133E0994201D108212FE003
:1057E000614501D108212BE0A94202D14FF400719B
:1057F00026E0B14202D14FF4007121E0B94202D15A
:105800004FF400711CE0414502D14FF4007117E0E4
:10581000494502D14FF4002112E0514502D14FF425
:1058200000210DE0594502D14FF4002108E0DFF8D6
:1058300088E5714502D14FF4002101E04FF000717D
:10584000DFF87CE5CEF80010C9E0DFF878E57145B7
:1058500040D9814201D1082137E0914201D108218C
:1058600033E0994201D108212FE0614501D108219F
:105870002BE0A94202D14FF4007126E0B14202D1DF
:105880004FF4007121E0B94202D14FF400711CE0E5
:10589000414502D14FF4007117E0494502D14FF460
:1058A000002112E0514502D14FF400210DE059458D
:1058B00002D14FF4002108E0DFF8FCE4714502D189
:1058C0004FF4002101E04FF00071DFF8FCE4CEF866
:1058D000001084E0DFF8F4E4714540D9814201D141
:1058E000082137E0914201D1082133E0994201D1EA
:1058F00008212FE0614501D108212BE0A94202D106
:105900004FF4007126E0B14202D14FF4007121E062
:10591000B94202D14FF400711CE0414502D14FF46D
:10592000007117E0494502D14FF4002112E05145C2
:1059300002D14FF400210DE0594502D14FF400216E
:1059400008E0DFF874E4714502D14FF4002101E072
:105950004FF00071DFF85CE4CEF80C103FE08142BC
:1059600001D1082137E0914201D1082133E0994269
:1059700001D108212FE0614501D108212BE0A94286
:1059800002D14FF4007126E0B14202D14FF4007110
:1059900021E0B94202D14FF400711CE0414502D12F
:1059A0004FF4007117E0494502D14FF4002112E095
:1059B000514502D14FF400210DE0594502D14FF479
:1059C000002108E0DFF8F0E3714502D14FF4002137
:1059D00001E04FF00071DFF8DCE3CEF80810DFF8EB
:1059E000DCE32168714540D9814201D1F84937E0B3
:1059F000914201D1F64933E0994201D1F4492FE0B7
:105A0000614501D1F2492BE0A94202D14FF48071E6
:105A100026E0B14202D14FF4807121E0B94202D1B7
:105A20004FF480711CE0414502D14FF4807117E0C2
:105A3000494502D14FF4802112E0514502D14FF483
:105A400080210DE0594502D14FF4802108E0DFF8B4
:105A500068E3714502D14FF4802101E04FF080717D
:105A6000DFF85CE3CEF80010C9E0DFF858E37145D9
:105A700040D9814201D1D64937E0914201D1D44980
:105A800033E0994201D1D2492FE0614501D1D0499B
:105A90002BE0A94202D14FF4807126E0B14202D13D
:105AA0004FF4807121E0B94202D14FF480711CE0C3
:105AB000414502D14FF4807117E0494502D14FF4BE
:105AC000802112E0514502D14FF480210DE059456B
:105AD00002D14FF4802108E0DFF8DCE2714502D109
